:020000021000EC
:1000540037810020B71702409387870198431367BD
:10006400870098C3B7170140938707C098433708A0
:1000740010001308F8FFB376070137073033558FA4
:1000840098C337554C00130505B481452920D5BFC5
:100094007D157DFD8280711106C0711122C0711120
:1000A40026C071114AC02A89AE8437140140130452
:1000B400C4C083220400B3C29200232054008604E7
:1000C40093F4040E99E093040002935229003389B7
:1000D40052001699630709004A855D3F4A85A68543
:1000E4005D3F024911018244110102441101824021
:0400F40011018280F4
:040000031000005495
:00000001FF
