:020000021000EC
:1000540037810020B71702409387870198431367BD
:10006400870098C3B7170140938707C098433708A0
:1000740010001308F8FFB376070137073033558FA4
:1000840098C3371401401304C4C083140400130933
:10009400F0F19709000093898903170A0000130AF5
:1000A4008A0383920900B3F42401B3E454002310B7
:1000B4009400379504001305053E29208909E3E2DD
:1000C40049FFC1B77D157DFD82802000400080007E
:0200D4004000EA
:040000031000005495
:00000001FF
