:1000000017810020130101001305C0199705002076
:10001000938545FF170600201306C6FE63FAC50048
:100020008322050023A0550011059105E3EAC5FED2
:1000300017050020130505FD970500209385C502CF
:100040006377B500232005001105E36DB5FEB712F7
:1000500002409382820103A30200B743000093830E
:10006000D3003363730023A06200B7170140938766
:1000700007C09843370810001308F8FFB37607014C
:1000800037073033558F98C3B712014093824280AF
:1000900003A30200B7F3FFFF9383F300337E7300E3
:1000A0001303004B3363C30123A06200B742014036
:1000B000938202801303103423A4620037230000CC
:1000C0001303C30023A66200170500001305350CB7
:1000D000A928170500201305E5F2930530068D28A1
:1000E00017050020130505F2392817050020130510
:1000F00065F1252817050000130545093D20D1BFEE
:100100007D157DFD8280130310069303A0078302F3
:100110000500638B020063E7620063E55300811210
:10012000230055000505E5B78280B7420140938260
:10013000028003030500630C03008393020093F322
:100140000308E38C03FE238262000505DDB782808D
:10015000B7420140938202803303B500B543294E74
:1001600083AE020093FE0E02E38C0EFE838E4200ED
:1001700063897E006387CE012300D5010505E36115
:1001800065FE2300050082800D0A0048656C6C6FD7
:0C01900020776F726C640D0A0000000004
:00000001FF
