:100000006F00C015000000000000000000000000AC
:1000100000000000000000000000000000000000E0
:1000200000000000000000000000000000000000D0
:1000300000000000000000000000000000000000C0
:1000400000000000000000000000000000000000B0
:1000500000000000000000000000000000000000A0
:100060000000000000000000000000000000000090
:100070000000000000000000000000000000000080
:100080000000000000000000000000000000000070
:100090000000000000000000000000000000000060
:1000A0000000000000000000000000000000000050
:1000B0000000000000000000000000000000000040
:1000C0000000000000000000000000000000000030
:1000D0000000000000000000000000000000000020
:1000E000F40100000000000000000000000000001B
:1000F0000000000000000000000000000000000000
:1001000000000000000000000000000000000000EF
:1001100000000000000000000000000000000000DF
:1001200000000000000000000000000000000000CF
:1001300000000000000000000000000000000000BF
:1001400000000000000000000000000000000000AF
:1001500000000000000000000000000017810020E7
:10016000130141EA9302601E73A0327C93020020C7
:1001700073A0027D93020000739072309302601EA0
:100180007390C27E73E0C07E9302601E93F202FC05
:1001900093E23200739052301305C0799705002026
:1001A000938545E6170600201306C6E563FAC500E9
:1001B0008322050023A0550011059105E3EAC5FE41
:1001C00017050020130545E4970500209385C5E336
:1001D0006377B500232005001105E36DB5FE0145E9
:1001E0008145712001A06FF0FFFF11E182800100C5
:1001F0007D15E5BF39713ECCB74701403ACE03A724
:10020000C7802AD606DE16DC1ADA1ED82ED432D2E1
:1002100036D042CA46C872C676C47AC27EC0137748
:10022000F7F723A6E7801307500523A2E7803717C7
:1002300001408327C7C0379504001305053E93C7C7
:1002400007022326F7C05537F250E2525253C253E9
:100250003255A255125682567247E2475248C2485A
:10026000324EA24E124F824F21617300203013058F
:100270007005CD2AB71602409C4E370610FF7D163A
:1002800093E7C7019CCEB717014003A707C013052A
:100290008003718F37063000518F23A0E7C003A77A
:1002A00007C0370600F17D16718F37060003518FA6
:1002B00023A0E7C003A707C0370600301207118349
:1002C000518F23A0E7C003A707C07D761306F60F62
:1002D000419B1367470023A0E7C003A707C013771C
:1002E000F7F01367070423A0E7C003A74780718FC7
:1002F0001367074023A2E78003A747801377F7F02F
:100300001367070B23A2E7809C4E11670507D98F5F
:100310009CCE37470140930710342324F780896728
:10032000B1072326F780FD2E13058003A92AF36762
:100330000430E16437140140B7098000130A000853
:10034000374901409384046A8327C4C093C70704D4
:100350002326F4C0832784C0858B85E3232844C1EA
:10036000832784C0898B99E78327C98093E707088F
:100370002326F9802685953DC1BF232834C1CDB7FA
:100380001303F0FF7310033B1303F0077310033ADA
:100390008280896793870780F3B7073017030000CF
:1003A0001303030173101334730020308280B707E6
:1003B00000D188438280B70700D1C8438280B70745
:1003C00000D1D8438843CC43E39DE5FE8280970764
:1003D0000020938727C3884309818280F32520B8B2
:1003E000732520B0F32720B8E39AF5FE8280F32529
:1003F00000B8732500B0F32700B8E39AF5FE8280B9
:1004000097070020938707C09C43B70600D113D6F7
:100410002700B70700D19C439842E38FE7FEF325FE
:1004200000B0370800D183270800B386E740E3EC2B
:10043000A6FE732700B0B307B74033F5D702B3D792
:10044000D7023305C5023355D502B387C7023E959F
:1004500082804111054506C66537B2401305400646
:10046000410179BFB70700D223800700A3850700A9
:100470001205B71700D23E9563E3A700828023A040
:100480000700C107D5BFB71700D285070A053E95FB
:1004900085472300F5008280B71700D20A0585073B
:1004A0003E95230005008280B7078034938707407C
:1004B0003E950A0585472300F5008280B707803402
:1004C000938707403E950A05230005008280B717F1
:1004D00000D20A058D073E952300B5008280B7172C
:1004E00000D28D070A053E95034505008280B717A7
:1004F00000D20A0589073E952300B5008280B71710
:1005000000D289070A053E95034505008280B7079A
:1005100000D22380A7008280B70700D203C507005E
:100520008280B70700D2A385A7008280B70700D2D8
:1005300003C5B7008280370700D28347070006054E
:10054000798993F7170E5D8D2300A7008280B70786
:1005500000D203C5070005813D898280011122CCAC
:100560002EC606CE2A84E5379147B245114763E38C
:10057000A7002A879376F70FA147371500D2958FEA
:100580000A040D052295B3D5F540B395F5008347D0
:100590000500B397E70093F7F70FB3D7E740CD8F88
:1005A00093F7F70F2300F500F24062440561828063
:1005B000411122C406C62A84593FB71700D28D07BD
:1005C0000A043E94834704009146114793F7F70FBE
:1005D00063E4A6001377F50F2145198DB24022443C
:1005E000B3D7A7403395A7001375F50F410182805B
:1005F000411122C426C206C62A84AE84893F91478F
:10060000114763E3A7002A87371500D20A040D05B6
:100610002295834705009376F70FA145B397E7002E
:1006200093F7F70F958DB394B400B3D7E740C58F18
:1006300093F7F70F2300F500B240224492444101A2
:100640008280411122C406C62A841137B71700D20E
:100650008D070A043E94834704009146114793F79F
:10066000F70F63E4A6001377F50F2145B24022444B
:100670003307E54033D5E7401375F50F410182801C
:10068000011122CC2EC606CE2A84D1358D47814554
:1006900063E9A702371700D20A040D0722978347A0
:1006A0000700B245A1463385A6409205B3D7A740BF
:1006B00093F5F50FB397A700CD8F93F7F70F2300AE
:1006C000F700F24062442E8505618280411122C408
:1006D00006C62A84AD3DB71700D28D070A043E94A2
:1006E000834704001147914693F7F70F6363A70010
:1006F000AA863395D700B240224413F7F60F13753C
:10070000F50F930747003355F5401375F50F410179
:100710008280F327503093F707FC93E737007390FC
:1007200057308280B71700D289070A053E95834764
:10073000050093E717002300F5008280B71700D269
:1007400089070A053E958347050093F7E70F2300C5
:10075000F5008280B71700D289070A053E958347C6
:10076000050093F7D70F2300F5008280B71700D25A
:1007700089070A053E958347050093F7B70F2300C5
:10078000F5008280B71700D289070A053E95834796
:0C079000050093E747002300F50082807D
:04079C0000127A00CD
:00000001FF
