:100000001781002013010100970200009382C2149F
:100010007390C27E73E0C07E970200009382821EBE
:1000200093F202FC93E232007390523013050027E2
:1000300097050020938505FD17060020130686FC12
:1000400063FAC5008322050023A055001105910520
:10005000E3EAC5FE170500201305C5FA9705002041
:10006000938545FA6377B500232005001105E36DFC
:10007000B5FEB71202409382820103A30200B74388
:1000800000009383D3003363730023A06200B7178B
:100090000140938707C09843370810001308F8FF02
:1000A000B376070137073033558F98C3130800F034
:1000B000B376070113084004558F98C3B712014067
:1000C0009382428003A30200B7F3FFFF9383F30000
:1000D000337E73001303004B3363C30123A062001C
:1000E000B7420140938202801303103423A46200BC
:1000F000372300001303C30023A662001303300557
:1001000023826200B71200D29382120E13031000F2
:100110002380620073600430B7140140938484C06C
:100120008392040013F312006314030073000000B1
:1001300013F32200E31603FEB743014093830380C9
:10014000372E0000130ECE0823A6C301D1BF7D15A4
:100150007DFD8280711116C071111AC071112AC003
:1001600073252034B71200009382F2FF33755500D7
:1001700093028003639FA202B742014093820280F0
:10018000372300001303C30023A662001303900467
:1001900023A26200B71201409382C2C003930200FF
:1001A0001343030423906200378501001305056A99
:1001B000793F02451101024311018242110173008E
:1001C00020300100130000001300000013000000A5
:1001D00013000000130000001300000013000000D3
:1001E00013000000130000001300000013000000C3
:1001F00013000000130000001300000013000000B3
:10020000711116C071111AC071112AC0B7120140C4
:100210009382C2C00393020013430302239062003F
:10022000F3221034910273901234378501001305C4
:10023000056A313F02451101024311018242110159
:1002400073002030000000000000000000000000EB
:10025000000000000000000000000000000000009E
:10026000000000000000000000000000000000008E
:00000001FF
