:1000000017810020130101001305400C9705002003
:10001000938545FF17060020130646FF63FAC500C7
:100020008322050023A0550011059105E3EAC5FED2
:1000300017050020130585FD97050020938505FD14
:100040006377B500232005001105E36DB5FEB717F2
:1000500002409387870198431367870098C3B717B7
:100060000140938707C09843370810001308F8FF32
:10007000B376070137073033558F98C337140140E3
:100080001304C4C0831404001309F0F1970900207D
:10009000938949F7170A0020130A4AF78392090047
:1000A000B3F42401B3E45400231094003795040002
:1000B0001305053E29208909E3E249FFC1B77D15F3
:0400C0007DFD8280C0
:0800C400200040008000400014
:00000001FF
