:1000000017810020130101009702000093828213E0
:1000100093F202FC93E23200739052301305001CFD
:1000200097050020938505FE17060020130686FD20
:1000300063FAC5008322050023A055001105910530
:10004000E3EAC5FE170500201305C5FB9705002050
:10005000938545FB6377B500232005001105E36D0B
:10006000B5FEB71202409382820103A30200B74398
:1000700000009383D3003363730023A06200B7179B
:100080000140938707C09843370810001308F8FF12
:10009000B376070137073033558F98C3130800F044
:1000A000B376070113084004558F98C3B712014077
:1000B0009382428003A30200B7F3FFFF9383F30010
:1000C000337E73001303004B3363C30123A062002C
:1000D000B7420140938202801303103423A46200CC
:1000E000372300001303C30023A662001303300567
:1000F00023826200B71200D29382120E1303100003
:100100002380620073600430B7140140938484C07C
:100110008392040013F31200E31C03FEB743014073
:1001200093830380372E0000130ECE0823A6C3014D
:10013000C5B77D157DFD828013000000130000000F
:10014000711116C071111AC071112AC0B712014085
:100150009382C2C0039302001343030823906200FA
:10016000B742014093820280372300001303C3008B
:1001700023A662001303900423A2620037850100C6
:100180001305056A7D3702451101024311018242C0
:10019000110173002030000000000000000000008A
:1001A000000000000000000000000000000000004F
:1001B000000000000000000000000000000000003F
:00000001FF
