:10000000178100201301010013050010970500203F
:10001000938545FF170600201306C6FE63FAC50048
:100020008322050023A0550011059105E3EAC5FED2
:1000300017050020130505FD97050020938585FC15
:100040006377B500232005001105E36DB5FEB712F7
:1000500002409382820103A30200B743000093830E
:10006000D3003363730023A06200B7170140938766
:1000700007C09843370810001308F8FFB37607014C
:1000800037073033558F98C3B712014093824280AF
:1000900003A30200B7F3FFFF9383F300337E7300E3
:1000A0001303004B3363C30123A06200B742014036
:1000B000938202801303103423A4620037230000CC
:1000C0001303C30023A66200B7420140938202805B
:1000D0001303300523826200B71201409382C2C02D
:1000E00003A302001343030423A062003715030097
:1000F000130505D41120CDB77D157DFD828000004C
:00000001FF
